S016000054656D704C6F6767657256315F302E7372656302
S11300000C947F000C9491000C9491000C9491003A
S11300100C9491000C9491000C9491000C94910018
S11300200C9491000C9491000C9491000C94910008
S11300300C9491000C9491000C9491000C949100F8
S11300400C9491000C9491000C9491000C949100E8
S11300500C9491000C9491000C9491000C949100D8
S11300600C9491000C9491000C9491000C949100C8
S11300700C9491000C9491000C9491000763423607
S1130080B79BD8A71A39685618AEBAAB558C1D3C25
S1130090B7CC5763BD6DEDFD753EF6177231BF00E9
S11300A00000803F08000000BE922449123EABAA23
S11300B0AA2ABECDCCCC4C3E00000080BEABAAAA7E
S11300C0AA3E00000000BF000000803F00000000C6
S11300D000084178D3BB4387D1133D190E3CC3BDFF
S11300E04282AD2B3E68EC8276BED98FE1A93E4CAC
S11300F080EFFFBE01C4FF7F3F0000000000112419
S11301001FBECFEFCDBFDFE3DEBF28E3A0E0B8E33F
S113011001C01D92A130B207E1F70E940F030C94B5
S11301200C070C940000E0E0F2E08181856081839B
S1130130A0E0B8E08DE695E018968D939C9319970E
S1130140E0E0F4E080818B7F808380818260808323
S113015016968C911697806C16968C9308959091B0
S1130160040895FFFCCF8093020808950F931F9312
S1130170CF93DF938C01C0E0D0E007C0F801EC0F0F
S1130180FD1F80810E94AF002196F801019000209C
S1130190E9F73197E01BF10BCE17DF0778F3DF9116
S11301A0CF911F910F910895809104088823E4F75B
S11301B080910008089598E0909346048093240861
S11301C0809123088823E4F760932408809123080E
S11301D08823E4F788E080934504089598E0909399
S11301E0460480932408809123088823E4F78FEF42
S11301F080932408809123088823E4F780912408BD
S11302008093003888E080934504809100380895F5
S113021092E09093260480932408809123088823F5
S1130220E4F760932408809123088823E4F782E0AC
S1130230809325040895CF93DF93E0E0F2E0818179
S113024085608183E0E2F8E0808180628083808140
S113025082608083808180618083818184608183E6
S1130260818183608183808181608083A0E4B4E0A4
S113027082E012968C93129794E011969C931197B6
S113028091E011969C93119798E011969C93119785
S1130290C0E2D4E0898315969C938D83848160E8C1
S11302A080E80E94DB0063E481E80E94DB0060E8F0
S11302B080E80E94080163E481E80E940801DF915C
S11302C0CF91089592E0909326048093240880911E
S11302D023088823E4F78FEF809324088091230870
S11302E08823E4F7809124088093003882E0809387
S11302F025048091003808956150710920E030E0B0
S11303000EC0DC01A20FB31F4C91FC01E60FF71FD6
S113031050815C9340832F5F3F4F615071092617D2
S113032037077CF308950F931F93CF93DF938B01CB
S11303309A01C0E0D0E00CC0F801EC0FFD1F6AE0A8
S113034070E00E94DB06805D8083862F972F2196C4
S1130350009791F706C0F801EC0FFD1F80E380833E
S11303602196C217D307BCF3BE01C8010E947C01C9
S1130370F801EC0FFD1F1082CE01DF91CF911F9188
S11303800F9108954F925F926F927F928F929F92F6
S1130390AF92BF92EF92FF920F931F93CF93DF938D
S11303A02B013C017A0189010E9425044B015C0167
S11303B0072E000C880B990B0E945D049B01AC0175
S11303C0C301B2010E9446032B013C0140E050E00E
S11303D0B701C4010E949301EC010115110529F133
S11303E0F701E80FF91F8EE28083B801012E000C9B
S11303F0880B990B0E945D049B01AC0160E070E0E6
S113040080E291E40E9456059B01AC01C301B20154
S11304100E94E9042196CE0DDF1D0E942504DC0113
S1130420CB01A801BE010E949301DF91CF911F91DE
S11304300F91FF90EF90BF90AF909F908F907F901F
S11304406F905F904F900895CF92DF92EF92FF925A
S1130450CF93DF93CDB7DEB76497CDBFDEBF8CE01B
S11304600E94EE00682F70E080E090E00E945B0440
S113047020E030E040E851E40E94E9046B017C0193
S11304808DE00E94EE00682F70E080E090E00E9412
S11304905B0420E030E04FE75DE30E94E9049B0148
S11304A0AC01C701B6010E9447036B017C018EE0D9
S11304B00E94EE00682F70E080E090E00E945B04F0
S11304C020E030EF4FE755E40E94B3039B01AC01F9
S11304D0C701B6010E94470321E030E0AE014F5F3F
S11304E05F4F0E94C201CE0101960E94B6008AE2CB
S11304F09EE80E94B6006496CDBFDEBFDF91CF9127
S1130500FF90EF90DF90CF900895CF92DF92EF921B
S1130510FF92CF93DF93CDB7DEB76497CDBFDEBF35
S11305208CE00E946201682F70E080E090E00E94FD
S11305305B0420E030E040E851E40E94E9046B01F0
S11305407C018DE00E946201682F70E080E090E001
S11305500E945B0420E030E04FE75DE30E94E90481
S11305609B01AC01C701B6010E9447036B017C01EA
S11305708EE00E946201682F70E080E090E00E94AB
S11305805B0420E030EF4FE755E40E94B3039B0186
S1130590AC01C701B6010E94470321E030E0AE017F
S11305A04F5F5F4F0E94C201CE0101960E94B600C8
S11305B08AE29EE80E94B6006496CDBFDEBFDF915A
S11305C0CF91FF90EF90DF90CF900895CF93DF937A
S11305D0EC016CE17EE80E940307892B29F48FE18A
S11305E09EE80E94B60018C06DE27EE8CE010E942B
S11305F00307892B19F40E9424020EC065E37EE8E8
S1130600CE010E940307892B19F40E94850204C0BD
S11306108DE39EE80E94B600DF91CF910895CF93B9
S1130620DF93CDB7DEB7E297CDBFDEBF0E94930064
S11306300E941B0110E00E94D4008D30C9F08A3062
S1130640B9F091E0910FDE011196FD01E10FF11D6A
S11306508083292F30E0FD0101900020E9F73197D4
S1130660EA1BFB0BE217F30710F0192F01C010E08F
S11306708D3009F7E1E0F0E0EC0FFD1FE10FF11D13
S11306801082CE0101960E94E602D4CF5058BB27B7
S1130690AA270E945E030C94AF040E94A10438F0C0
S11306A00E94A80420F039F49F3F19F426F40C9416
S11306B09E040EF4E095E7FB0C949804E92F0E9445
S11306C0C00458F3BA17620773078407950720F02C
S11306D079F4A6F50C94E2040EF4E0950B2EBA2FEF
S11306E0A02D0B01B90190010C01CA01A001112434
S11306F0FF27591B99F0593F50F4503E68F11A16E0
S1130700F040A22F232F342F4427585FF3CF469570
S113071037952795A795F0405395C9F77EF41F1692
S1130720BA0B620B730B840BBAF09150A1F0FF0F5C
S1130730BB1F661F771F881FC2F70EC0BA0F621F48
S1130740731F841F48F4879577956795B795F79538
S11307509E3F08F0B0CF9395880F08F09927EE0FCD
S11307609795879508950E94C7030C94AF040E943F
S1130770A80458F00E94A10440F029F45F3F29F036
S11307800C94980451110C94E3040C949E040E945C
S1130790C00468F39923B1F3552391F3951B550BCA
S11307A0BB27AA2762177307840738F09F5F5F4F40
S11307B0220F331F441FAA1FA9F335D00E2E3AF07F
S11307C0E0E832D091505040E695001CCAF72BD097
S11307D0FE2F29D0660F771F881FBB1F26173707E8
S11307E04807AB07B0E809F0BB0B802DBF01FF271A
S11307F093585F4F3AF09E3F510578F00C9498045B
S11308000C94E3045F3FE4F3983ED4F38695779524
S11308106795B795F7959F5FC9F7880F911D9695D2
S1130820879597F90895E1E0660F771F881FBB1F2E
S1130830621773078407BA0720F0621B730B840BDB
S1130840BA0BEE1F88F7E09508950E942C04689473
S1130850B1110C94E30408950E94C80488F09F57D2
S113086098F0B92F9927B751B0F0E1F0660F771FD0
S1130870881F991F1AF0BA95C9F714C0B13091F0C6
S11308800E94E204B1E008950C94E204672F782FEB
S11308908827B85F39F0B93FCCF38695779567958B
S11308A0B395D9F73EF490958095709561957F4FF7
S11308B08F4F9F4F0895E89409C097FB3EF490959D
S11308C08095709561957F4F8F4F9F4F9923A9F025
S11308D0F92F96E9BB279395F695879577956795B4
S11308E0B795F111F8CFFAF4BB0F11F460FF1BC0F8
S11308F06F5F7F4F8F4F9F4F16C0882311F096E98B
S113090011C0772321F09EE8872F762F05C0662338
S113091071F096E8862F70E060E02AF09A95660FF1
S1130920771F881FDAF7880F9695879597F90895AA
S113093097F99F6780E870E060E008959FEF80EC8E
S1130940089500240A941616170618060906089531
S113095000240A9412161306140605060895092E97
S11309600394000C11F4882352F0BB0F40F4BF2B06
S113097011F460FF04C06F5F7F4F8F4F9F4F089546
S113098057FD9058440F551F59F05F3F71F047953C
S1130990880F97FB991F61F09F3F79F08795089521
S11309A0121613061406551FF2CF4695F1DF08C040
S11309B0161617061806991FF1CF8695710561055D
S11309C008940895E894BB2766277727CB0197F905
S11309D008950E94FC040C94AF040E94A10438F012
S11309E00E94A80420F0952311F00C9498040C9410
S11309F09E0411240C94E3040E94C00470F3959F98
S1130A00C1F3950F50E0551F629FF001729FBB2701
S1130A10F00DB11D639FAA27F00DB11DAA1F649F9D
S1130A206627B00DA11D661F829F2227B00DA11D50
S1130A30621F739FB00DA11D621F839FA00D611DD6
S1130A40221F749F3327A00D611D231F849F600DF7
S1130A50211D822F762F6A2F11249F5750409AF020
S1130A60F1F088234AF0EE0FFF1FBB1F661F771FAC
S1130A70881F91505040A9F79E3F510580F00C9477
S1130A8098040C94E3045F3FE4F3983ED4F3869512
S1130A9077956795B795F795E7959F5FC1F7FE2B17
S1130AA0880F911D9695879597F90895FA01EE0F91
S1130AB0FF1F309621053105A1F16115710561F41F
S1130AC08038BFE39B0749F168949038810561F051
S1130AD08038BFEF9B0741F099234AF5FF3FE105BA
S1130AE03105210519F1E8940894E795D901AA2361
S1130AF029F4AB2FBE2FF85FD0F310C0FF5F70F462
S1130B00A695E0F7F73950F019F0FF3A38F49F77DB
S1130B109F930DD00F9007FC9058089546F00C94C5
S1130B209E0460E070E080E89FE308954FE79F77BC
S1130B305F934F933F932F930E9451062F913F91C0
S1130B404F915F910E94E9040C94AE0529F416F0CC
S1130B500C9498040C94E2040C949E040E94C8041F
S1130B60A8F39638A0F707F80F92E8942BE33AEA33
S1130B7048EB5FE70E94FF040F920F920F924DB76C
S1130B805EB70F920E949906ECE7F0E00E94E00540
S1130B904F915F91EF91FF91E595EE1FFF1F49F093
S1130BA0FE57E0684427EE0F441FFA95E1F741959C
S1130BB0550B0E9413060F9007FE0C940706089528
S1130BC0DF93CF931F930F93FF92EF92DF927B01FA
S1130BD08C01689406C0DA2EEF010E94FC04FE0129
S1130BE0E894A5912591359145915591A6F3EF018E
S1130BF00E945E03FE019701A801DA9469F7DF9071
S1130C00EF90FF900F911F91CF91DF9108959B0179
S1130C10AC0160E070E080E89FE30C94B3030C94B3
S1130C2098040C94CD060E94C804D8F39923C9F300
S1130C30940F511DA3F39150504094F059F0882320
S1130C4032F0660F771F881F91505040C1F79E3FC6
S1130C5051052CF7880F911D9695879597F908955E
S1130C605F3FACF0983E9CF0BB27869577956795DF
S1130C70B79508F4B1609395C1F7BB0F58F711F419
S1130C8060FFE8CF6F5F7F4F8F4F9F4FE3CF0C9490
S1130C90E30416F00C94CD060C949E0468940C9412
S1130CA098040E94C804A8F39923C1F3AEF3DF9318
S1130CB0CF931F930F93FF92C92FDD2788232AF028
S1130CC02197660F771F881FDAF720E030E040E8AD
S1130CD05FEB9FE3883920F0803E38F021968F77D0
S1130CE00E944703E4EAF0E004C00E944703E1EDF8
S1130CF0F0E00E94E0058B01BE01EC01FB2E6F5772
S1130D0071097595771F880B990B0E945D0428E182
S1130D1032E741E35FE30E94FC04AF2D9801AE018A
S1130D20FF900F911F91CF91DF910E945E030C946D
S1130D30AF04FA01DC01AA0FBB1F9B01AC01BF5732
S1130D4028F4222733274427507820C0B75190F441
S1130D50AB2F0024469537952795011CA395D2F314
S1130D60002071F0220F331F441FB395DAF30ED025
S1130D700C94460361307105A0E88A07B94630F443
S1130D809B01AC016627772788279078309621F05D
S1130D90208331834283538308959F3F31F09150E0
S1130DA020F4879577956795B795880F911D96954B
S1130DB0879597F9089597FB072E16F4009407D0AA
S1130DC077FD09D00E94EF0607FC05D03EF490950C
S1130DD081959F4F0895709561957F4F0895AA1B43
S1130DE0BB1B51E107C0AA1FBB1FA617B70710F012
S1130DF0A61BB70B881F991F5A95A9F78095909544
S1130E00BC01CD010895FB01DC018D910190801995
S10F0E100110D9F3990B0895F894FFCF5A
S1130E1C4F4E004F4B2C204C4544204F4E2E0D0A68
S1130E2C0054656D704368310054656D70436832CD
S1130E3C00496E636F727265637420636F6D6D61CC
S1090E4C6E642E0D0A0085
S9030000FC
